:020000040800F2
:10000000D80F00202904000831040008353D0008FD
:100010003504000837040008390400080000000017
:100020000000000000000000000000003B04000889
:100030003D040008000000003F040008F9630008C8
:100040004304000843040008430400084304000874
:100050004304000843040008430400084304000864
:100060004304000843040008430400084304000854
:100070004304000843040008430400084304000844
:100080004304000800000000EF0C000843040008CF
:100090004304000843040008430400084304000824
:1000A0003D6400088164000843040008430400081C
:1000B0004304000843040008430400084304000804
:1000C00043040008430400084304000843040008F4
:1000D0004304000843040008A58200084304000804
:1000E000150E0008430400084304000843040008F8
:1000F0004304000843040008430400080000000013
:100100000000000043040008000000004304000851
:1001100043040008000000004304000843040008F2
:100120004304000843040008430400084304000893
:100130004304000800000000000000004304000821
:100140004304000843040008000000000000000011
:10015000000000000000000000000000000000009F
:100160000000000000000000000000004304000840
:100170004304000800000000000000000000000030
:100180000000000043040008000000000000000020
:10019000000000000000000000000000000000005F
:1001A00000000000000000004304000843040008B1
:1001B0004304000843040008430400080000000052
:1001C00000000000430400080000000000000000E0
:1001D0004304000843040008DFF80CD000F04AFD97
:1001E0000048004785850008D80F00200146002000
:1001F00091F8582091F849108A4228BF0120704791
:100200002DE9F04FB0F92A300446426EC3EBC330FB
:1002100093B08242C8BF606605DCA3EBC33C944543
:10022000A8BFC4F864C0B4F81AC1D4F864A0A56E1D
:100230004AFA0CF212B28542DCBFA3EBC330A842EB
:10024000ACBFA066A06E069040FA0CF0B4F928C0CE
:1002500003B2E66DCCEBCC308642C8BFE06504DC6F
:10026000ACEBCC35B542A8BFE565256E854203DC15
:10027000ACEBCC30854200DC206694F81801D4F851
:100280005C80B1F804C048FA00F7A7EB0C06B1F89F
:100290000890B1F900B0B1F806C0B1F90210256EAE
:1002A00009FB0BFB09FB01F14FEA2149CDF8309026
:1002B00045FA00F0B4F81C90A0EB0C0C4FEA2B4E62
:1002C00019FB07F1B4F81EB0A8EB01011BFB06F700
:1002D000CDF840B0B4F824B039441BFB0EF7CDF88C
:1002E0003CB0B4F82080394418FB02F7C91B0191D7
:1002F000678C17FB06F194F82EE00AEB010BB4F9BA
:10030000266043FA0EF106FB01FAB4F906100AFB67
:1003100001BA19FB00F0DDF840B0281A1BFB0CF500
:10032000DDF83CB0DDF8309028441BFB09F528448B
:1003300018FB03F5451B17FB0CF0DDF818C06044F3
:1003400042FA0EFC06FB0CFC01FB1C06B4F9200172
:100350000028ACBF01204FF0FF30A4F86C20A4F8B7
:100360006E3012FB00F713FB00F0C0F10008B4F987
:10037000000003F0E3FE10FB27F110FB08F040F350
:10038000CF3041F3CF31411A04F1300004F070FC5A
:10039000208194F8F01094F80A21491CC9B28A42CD
:1003A00008BF002104EB4102B2F870C0A4F808C1F4
:1003B000A2F8700084F8F0102188084400B2208070
:1003C0000199C4F864A0C4E91715A66613B0BDE886
:1003D000F08F10B490F8F0C090F80B110CF0FF0300
:1003E00000EB430390F80A21B3F97030D0F80441D0
:1003F000511A234408BFB0F9081107D06144914253
:10040000A8BF891A00EB4101B1F9701090F81C21C6
:10041000591A41FA02F2C280C0F8041110BC7047A8
:100420000021303004F01BBC0648804706480047D6
:10043000FEE7FEE7FEE7FEE7FEE7FEE7FEE7FEE794
:10044000FEE7FEE721640008D901000830B400F19E
:100450000C046830029D2EC04FF0000C00F824CC34
:1004600000F823CC6146783804E0A4680CF101025E
:1004700002F0FF0C002C18BFBCF1050FF5D30CEBFC
:100480004C0200EB8202916080F848C0018864222F
:1004900051434FF47A72B1FBF2F180F8561030BC40
:1004A00070472DE9F04704460026D4E91A89C18037
:1004B00080F8556080F8586080F8536000F10C05B2
:1004C00080F854600F46484607F0C4FF00214046BC
:1004D00005F0D3FE608810FB07F001B2484608F033
:1004E00015F800221146404605F048FE2A88A888E3
:1004F00010FB07F001B2404605F040FE2A886888EC
:1005000010FB07F001B2484607F0C2FF2888218897
:1005100048434FF47A71B0FBF1F0401CA080A8680A
:10052000A06084F85760BDE8F0872DE9F05F0446CD
:1005300080884FF0010A0025D34600287ED0401E57
:10054000A08094F8580030B994F855000028206F26
:1005500006D041688847A08800286FD000F0E0B836
:10056000C16879B194F85710491CC9B284F8571082
:1005700094F85620914205D9C168884784F85350B1
:1005800084F85750206F01698847002808BF84F815
:10059000535006D094F853007F283CBF401C84F889
:1005A0005300206FC168002994F8531005D094F8C7
:1005B0005620B1EB520F02D0CDE77F29CBD1006896
:1005C00005F063FD060048BF70420FFA80F8B4F9E9
:1005D0000600002802DD002E02DD04E0002E02DB12
:1005E00084F85350B7E7B4F84A101FFA88F08842ED
:1005F00005D9206F4168884784F855B0ABE7B4F857
:100600004C108842A7D94FF000094F46E06E07F022
:100610003BFF206F81688847A068002808BFA5803D
:100620006FD0B0F90200404512DAA168886840B383
:10063000B1F90290B1F90470A06000E022E094F8F2
:100640005810491C84F85810B0F902004045ECDB02
:10065000A168B1F90200B1F90410A0EB0900C91BAF
:10066000714391FBF0F007FA80F001B20022A06E16
:1006700005F084FDA4F804B004F15C00A06006203D
:100680003BE0A580A068D8B394F8580010B10128C9
:100690000BD00FE0606F04F06DFC84F854B0606F15
:1006A00004F06CFC84F8535004E0606F04F064FCC8
:1006B00084F85450A068E288818811FB02F1028816
:1006C00009B2A06E05F05AFDA068E288418811FBCE
:1006D00002F1028809B2E06E07F0DAFEA168228812
:1006E000088850434FF47A72B0FBF2F0401CA080AF
:1006F0008868A06094F85800401C84F858000FE007
:10070000FFE794F8481094F85800491E884208BF43
:100710004FF0000A04D0072804BF84F85850A58081
:100720005046BDE8F09F70B504468088012520B191
:10073000401E0004000CA08028D1A068002808BF3B
:10074000002523D08188E28811FB02F1028809B2DA
:10075000A06E05F013FDA068E288418811FB02F14C
:10076000028809B2E06E07F093FEA168228808882B
:1007700050434FF47A72B0FBF2F0401CA0808868BE
:10078000A06094F85800401C84F85800284670BDBA
:10079000014600208968002908BF0120704710B574
:1007A0000021C46E81608180204605F06EFC014608
:1007B0002046BDE81040002207F06ABE01EB41016F
:1007C00000EB81008281704701EB410100EB810069
:1007D000C281704701EB410100EB8100028270474A
:1007E00001EB410100EB81008089704701EB410181
:1007F00000EB8100B0F90E00704701EB410100EB06
:100800008100B0F91000704790F84800704790F8E8
:100810005400704730B40023C365036643668366A3
:100820000380C38080F8F23080F8F33080F8F43031
:1008300080F8F530C0F8F830C0F8FC30C0F804316A
:1008400080F81E3180F81F3190F80AC1BCF1000F0A
:1008500015D000221CF001011CBFA0F8703001224D
:1008600061450CDA00EB4204521CA4F8703000EB36
:100870004204891C521CA4F870306145F2DB80F8F8
:10088000F030A0F80831002130BC303004F0E7B976
:1008900070B5044690F8120184F8F200012084F843
:1008A00000010025E585B4F92A30C04991FBF3F138
:1008B00009B249B1E28D01EBD17102F10102491097
:1008C0004FEA4000E285F5D1A08513FB00F042F627
:1008D000BE0190FBF1F0E0842046FFF79BFF04F19E
:1008E000300004F0B2F9658170BD70472DE9F00366
:1008F000002590F80A212C46A946AC46A8462F466A
:100900002B46002A09D900BF00EB43065B1CB6F951
:100910007060DBB235449A42F6D895FBF2F50023BD
:10092000002A0AD900EB43065B1CB6F97060DBB203
:10093000761B06FB06449A42F4D894FBF2F3B0F817
:100940000C4105FB05F26243D41702EB5462D2114D
:100950009342B8BF4FF00108C28A83696A4302EB31
:100960008202520092FBF3F2437B92FBF3F20A8085
:10097000828080F8F18090F80031012B18BF0127A8
:1009800022D000BF90F8F420002A4DD07A4218EA15
:10099000020F4FF0000211D190F8F3305B1CDBB274
:1009A00080F8F33090F813C163453DD380F8F3200D
:1009B000817C0173BDE8F0030020704780F8F320CC
:1009C000BDE8F00305F074BB002AB8BF5242B0F88E
:1009D0001631934223DDB0F86C3013FB03FCB0F802
:1009E0006E3013FB03C9B0F90E30C2EBC23292FB7A
:1009F000F3F290F8153153434FEAE37C03EB9C6329
:100A00009B1103FB02FC4FEAEC720CEB926290F834
:100A10001431921102FB13C29145C8BF012780F81F
:100A2000F570C0E93E9CADE7BDE8F00305F040BBC2
:100A3000F0B4A0F8201190F81F210024012A08BF6B
:100A4000B0F9041090F81E2100230125012A38D0A6
:100A5000B0F9042012FB01FCBCF1000F38DD002AC4
:100A6000BCBF524212B20029BCBF494209B290F841
:100A70000EC11CFB01FC4FEAEC760CEB167C90F8E7
:100A80000F614CF30F1C16FB01F1CE1701EB167131
:100A900090F8F16041F30F11012E17D1B0F81071E9
:100AA00096B2BE4212D98A42A8BF94450EDB90F896
:100AB000F210491CC9B280F8F21090F8122191424C
:100AC00006D380F8F4500124037301E080F8F2307B
:100AD0002046F0BC70470146B0F86C20B1F86E10AB
:100AE00062F30F0061F31F40704790F81821C36D47
:100AF000006E134163F30F01104160F31F4108467C
:100B00007047C38B0B80408C10807047C183428438
:100B1000704770B5044615460E46303004F090F824
:100B2000308004F1300004F086F8288070BD70B584
:100B300004461546303004F098F8294604F1300098
:100B4000BDE8704004F08FB8704700680021303075
:100B500004F085B870B5044615460E46303004F0F2
:100B60006DF800FB06F104F1300004F078F8258000
:100B700070BDD0F8FC007047D0F8F800704780F8DE
:100B80000011704790F8F5007047006890F8F10088
:100B900070470068012180F81E117047006801212C
:100BA00080F81F117047A0F8101170475EEA0F001F
:100BB0002DE9F05F0546002092469B468846064692
:100BC000814640241BE0284641464746224600F025
:100BD00041F853465A46C01A914110D3114618465F
:100BE000224600F028F82D1A67EB01084F462246EE
:100BF0000120002100F01FF817EB00094E41201ED4
:100C0000A4F10104DFDC484631462A464346BDE8EC
:100C1000F09FD2B201E000F8012B491EFBD27047D1
:100C20000022F6E710B513460A4604461946FFF7B8
:100C3000F0FF204610BD202A04DB203A00FA02F122
:100C4000002070479140C2F1200320FA03F31943BA
:100C500090407047202A04DB203A21FA02F000215C
:100C6000704721FA02F3D040C2F1200291400843BC
:100C700019467047064C074D06E0E06840F0010356
:100C800094E8070098471034AC42F6D3FFF7A8FA6F
:100C90002C9000084C90000870B58C1810F8015B7F
:100CA00015F0070301D110F8013B2A1106D110F805
:100CB000012B03E010F8016B01F8016B5B1EF9D109
:100CC0002B0705D40023521E0DD401F8013BFAE78F
:100CD00010F8013BCB1A921C03E013F8015B01F8FA
:100CE000015B521EF9D5A142D8D3002070BD10B5CA
:100CF0004FF0A0414020086005F006FDBDE810401F
:100D000006F090BD10B4024608460FFA81FC1CFBA9
:100D10000CF40B1413FB0341148864438C4224BF6E
:100D200010BC704792F8B240C4EB1161C9B202EB3B
:100D300041018A8810BC0CFB02F14FEAE17C01EB17
:100D40005C41C91361F30F0003FB02F1CA1701EB09
:100D50005241C91361F31F407047000070B505464A
:100D6000164CC08E2601012811D1284695F8301066
:100D7000002206F0C1FD06FA80F1114802686FF307
:100D80000F1211430160606840F001006060288F1D
:100D9000012818BF70BD284695F83110002206F0D2
:100DA000ABFD06FA80F1074802686FF30F1211439A
:100DB0000160606840F00200606070BD0008005093
:100DC0000C08005018080050084490F83000704794
:100DD00000EB4100B0F9320070470000C28E0849B4
:100DE000012A03D10A6842F001020A60008F01283B
:100DF00018BF7047086840F48030086070470000F2
:100E000000080050084480F83020704700EB410093
:100E10004286704702494FF48060086007F056B878
:100E200014040140002190B1437801780022194454
:100E3000002B09D900EB020C521C9CF802C0D2B264
:100E4000614489B29342F5D801EB1120C1B2084642
:100E50007047002141820175417580F8961080F835
:100E6000971080F8981080F8991080F89A1080F800
:100E70001B1180F81C1180F81D117047DDF800C0AF
:100E8000002818BF80E80E107047000000EB4001FA
:100E900001EB001210B5084901EB420494F824104C
:100EA000002918BF10BD054951F8200005F030F9A0
:100EB000E083208210BD0000480A00200C070020BB
:100EC00010B5044600EB440000EB04121248002168
:100ED00000EB4202114811605160D1601161D18371
:100EE000C2F81610C2F81A10118450F8240003F04A
:100EF000B6FE0B48002150F8240003F0B0FE09486C
:100F000050F8240005F032F9074850F82400BDE8F5
:100F1000104004F02FB80000480A002014070020F9
:100F2000180700200C07002024070020704700004D
:100F30002DE9F00782B00023009390F858409C46BA
:100F40001A46012C01BF022002B0BDE8F00770472D
:100F5000012480F858404669FD4D002E1CBF0E6AE2
:100F6000012E02D0876EDFB129E04A68092A3BD101
:100F70008A6A4FF47856002A04BF0A6806EA524289
:100F800007D00F6802F07C0206EA57463243CE6A69
:100F900032430668F76C3D401543F564426623E032
:100FA000C0E919C68A6A002A04BF0A6A521E06D01E
:100FB0000E6A02F07C02761E3243CE6A32430E681D
:100FC0000F79C6F3846607F01F07BE403243866E72
:100FD000761E8666476E47EA0202426604D10668BC
:100FE000F76C3D402A43F2640268956815F0080FDB
:100FF0000AD191F82550B5B1D56891F8266025F44D
:10100000401545EA4655D560026895689668C5F36F
:101010008005C6F3C00655EA06074FF004054FF0F9
:1010200007060CD07DE091F8265091F824606D05FC
:1010300045EA0655D66826F440163543E3E78F6A3D
:10104000002F1CBFCF6A002F91F8257073D0012F9D
:101050001CBFD76827F0007777D0D76091F8302091
:10106000012A79D00268176927F0020717618A6898
:10107000B2F1004F7DD0D1F80080076805EAD85959
:101080004F44D7F81490C8F3045806FA08FA29EA2E
:101090000A0902FA08F249EA02027A61026857690B
:1010A00027F00047576102684F69D2F80C80C8F3F7
:1010B000C1084FEA480807FA08F80F69042F72D0F0
:1010C00002EB8702D1F80090176EDFF888A209F0D2
:1010D000F84907EA0A0749EA080847EA080747F013
:1010E00000471766D0F800800A698F6908EB820212
:1010F000D2F8608028F0807848EA070717660F7FEB
:10110000D0F800800A69012F0CBF4FF0007700274C
:1011100008EB8202D2F8608028F0007848EA0707DE
:1011200017660268976817F0010F40F07181C9E0F7
:1011300001E00AE010E0012FD7680EBF47F000770A
:1011400027F00077D76089D187E7C26D42F020028F
:10115000C265012382E70CE0D1E90D27174302683D
:10116000D2F8108028F4FF7848F0020847EA080710
:101170007CE70F68026805EAD7594A444FF0000837
:10118000D2F81490C7F3045706FA07FA29EA0A09B5
:1011900008FA07F749EA070757610268576947F0F5
:1011A00000477FE7FFE7176E00277F037F0B7CD0A8
:1011B000176E07F0F84797FAA7F7B7FA87F80F689E
:1011C000C7F31209B9F1000F0EBFC7F3846797FA8E
:1011D000A7F7B7FA87F7B84503D1176E27F000478E
:1011E00017660268576E0027121D7F037F0B176E6C
:1011F00007F0F8470EBF4FEA976897FAA7F7B7FAD4
:1012000087F80F68C7F31209B9F1000F0EBFC7F3D3
:10121000846797FAA7F7B7FA87F7B84503D1176E2F
:1012200027F0004717660268976E002708327F0391
:101230007F0B176E07F0F8470EBF4FEA976897FAD3
:10124000A7F7B7FA87F80F68C7F31209B9F1000FCB
:101250000EBFC7F3846797FAA7F7B7FA87F7B845C1
:1012600003D1176E27F0004717660268D76E002774
:101270000C327F037F0B176E07F0F8470EBF4FEA63
:10128000976897FAA7F7B7FA87F80F68C7F31209B4
:10129000B9F1000F0EBFC7F3846797FAA7F7B7FA43
:1012A00087F7B84508BF176E00E005E008BF27F0D4
:1012B00000477FF436AF33E7176E07F0F8474FEA81
:1012C00097687CE791F80C800F68D2F8B090C7F36C
:1012D000120A29EA0A09DFF880A008F018082AFA99
:1012E00008F808EA070749EA0707C2F8B070CA68B1
:1012F000A2F18047B7F5FE077ED10A68076812EAB7
:101300000A081ABF92FAA2F8B8FA88F8C2F38468F9
:1013100008F1010808F01F08B8F1090FC2F312081C
:1013200032D8B8F1000F1ABF92FAA2F8B8FA88F8CA
:10133000C2F3846808F1010808F01F0804FA08F8ED
:101340000EBFC2F3846492FAA2F4B4FA84F405E006
:101350000040100400F0FF03FFFF070004F1010448
:1013600004F01F0448EA84640EBFC2F3846292FA58
:10137000A2F2B2FA82F202F1010202F01F0202EBC3
:10138000420244EA025230E0B8F1000F0EBFC2F34D
:10139000846892FAA2F8B8FA88F808F1010808F00F
:1013A0001F0804FA08F80EBFC2F3846492FAA2F48C
:1013B000B4FA84F404F1010404F01F0448EA8464DC
:1013C0000EBFC2F3846292FAA2F2B2FA82F202F182
:1013D000010202F01F02DFF8288102EB420208EB53
:1013E000025244EA020242F0007205EAD2543C443E
:1013F000D1F80880656900E00AE0C2F3045206FAF9
:1014000002F625EA060508FA02F245EA02026261DE
:101410000C683C490C4267D04FF0A041D1F808134A
:1014200004F1705501F0E072374915F55F051ABFF8
:10143000364DAC4212F4000F11D0354D04F1605618
:1014400016F52E0608BF12F0807F38D004F15056F2
:1014500016F5F80608BF12F4800F3BD044E004688C
:10146000B4F1A04F40D18C6842F4000224F0E07443
:1014700022438A602749284A0968B1FBF2F101EB4F
:1014800041018900009101912ED0B1F1004F32D27B
:101490000029D8BF002105DD11F0010102D0009A1A
:1014A000521E0092019A491C521C91421CDA009C67
:1014B000891C641E641E00949142F8DB14E00468E9
:1014C000AC4211D08C6842F0807224F0E074224368
:1014D0008A6009E00468AC4206D08C6842F480025D
:1014E00024F0E07422438A6080F858C002B01846A5
:1014F000BDE8F00770470099491E0091FCD1F3E761
:10150000000020FE00000880000300501000C09082
:101510000001005060070020400D030090F85820A3
:101520004FF0000C012A04BF0220704770B49BB03A
:10153000012280F8582002680024B2F1A04F0AD09E
:10154000C16D41F02001C16580F858401BB04FF0DB
:10155000010070BC7047274B00939B689268C3F3EF
:10156000800312F0040F08BF002B0BD0C16D41F0B7
:101570002001C1654FF0010C80F858401BB0604657
:1015800070BC70471C4A0D684FF0A043FDB19568D0
:1015900090F8386025F4604545EA46354E6845EADE
:1015A000060595609D68D3F8083145EA030313F0FA
:1015B000010FE1D10B68896843EA0101936823F0C8
:1015C0001F0323F4706341EA03019160D4E791683B
:1015D00021F4604191609968D3F8083141EA030130
:1015E00011F0010F02BF916821F01F0121F4706119
:1015F000C2D1EAE700010050000300502DE9F007D6
:1016000085B00023019390F858209C46012A01BF21
:10161000022005B0BDE8F0077047012480F858406B
:101620000268956815F0040F0BD0C16D41F02001E0
:10163000C165012380F858C005B01846BDE8F00721
:101640007047D1E900650C2707EA95173A44176BF4
:1016500005F01F054FF01F0808FA05F8C6F3846669
:1016600027EA080706FA05F53D4315630268956801
:101670009668C5F38005C6F3C00655EA06074FF025
:1016800004054FF0070658D18F68B7F1004F5BD0C3
:10169000D1F8008005EAD8594A44D2F81490C8F32A
:1016A000045806FA08FA29EA0A0907FA08F749EA83
:1016B000070757610268576927F0004757610268BA
:1016C0004F69D2F80C80C8F3C1084FEA480807FAFE
:1016D00008F80F69042F4FD002EB8702D1F8009071
:1016E000176EDFF8C4A309F0F84907EA0A0749EAC8
:1016F000080847EA080747F000471766D0F8008057
:101700000A698F6908EB8202D2F8608028F080783D
:1017100048EA070717660F7F0268D1F81080012F8B
:101720000CBF4FF00077002702EB8802D2F86080F0
:1017300028F0007848EA070717660268976817F0EC
:10174000010F40F039819FE00F684FF0000805EA73
:10175000D7594A44D2F81490C7F3045706FA07FA47
:1017600029EA0A0908FA07F749EA070757610268F0
:10177000576947F00047A1E7176E00277F037F0BEB
:10178000176E07F0F8471ABF97FAA7F7B7FA87F866
:101790004FEA97680F68C7F31209B9F1000F0EBF3F
:1017A000C7F3846797FAA7F7B7FA87F7B84503D165
:1017B000176E27F0004717660268576E0027121D44
:1017C0007F037F0B176E07F0F8470EBF4FEA97684D
:1017D00097FAA7F7B7FA87F80F68C7F31209B9F1B4
:1017E000000F0EBFC7F3846797FAA7F7B7FA87F71A
:1017F000B84503D1176E27F0004717660268976E49
:10180000002708327F037F0B176E07F0F8470EBFE3
:101810004FEA976897FAA7F7B7FA87F80F68C7F300
:101820001209B9F1000F0EBFC7F3846797FAA7F743
:10183000B7FA87F7B84503D1176E27F00047176648
:101840000268D76E00270C327F037F0B176E07F0FC
:10185000F8470EBF4FEA976897FAA7F7B7FA87F8E5
:101860000F68C7F31209B9F1000F0EBFC7F3846701
:1018700097FAA7F7B7FA87F7B84504BF176E27F0AE
:1018800000477FF45AAF57E791F80C800F68D2F801
:10189000B090C7F3120A29EA0A09DFF810A208F08B
:1018A00018082AFA08F808EA070749EA0707C2F8F9
:1018B000B070CA68A2F18047B7F5FE077CD10A680C
:1018C000D0F8008012EA0A071ABF92FAA2F7B7FA14
:1018D00087F7C2F384677F1C07F01F07092FC2F345
:1018E00012072AD8002F1ABF92FAA2F7B7FA87F781
:1018F000C2F3846707F1010707F01F0704FA07F72F
:101900000EBFC2F3846492FAA2F4B4FA84F404F130
:10191000010404F01F0447EA84640EBFC2F384622A
:1019200092FAA2F2B2FA82F202F1010202F01F026E
:1019300002EB420244EA02522EE0002F0EBFC2F335
:10194000846792FAA2F7B7FA87F707F1010707F061
:101950001F0704FA07F70EBFC2F3846492FAA2F4D9
:10196000B4FA84F404F1010404F01F0447EA846427
:101970000EBFC2F3846292FAA2F2B2FA82F202F1CC
:10198000010202F01F024A4F02EB420207EB025231
:1019900044EA020242F0007205EAD25444448F68DD
:1019A0006569C2F3045206FA02F625EA060507FA4B
:1019B00002F245EA020262610C683E490C423FF4C1
:1019C00039AE4FF0A041D1F8081304F1705501F081
:1019D000E072394915F55F051ABF384DAC4212F473
:1019E000000F1DD0364D04F1605616F52E0608BFC7
:1019F00012F0807F47D004F1505616F5F80608BF64
:101A000012F4800F7FF416AE0468AC423FF412AEBD
:101A10008C6842F4800224F0E07422438A6009E674
:101A20000468B4F1A04F7FF405AE8C6842F4000264
:101A300024F0E07422438A602249234A0968B1FBFA
:101A4000F2F101EB41018900019100913FF4F2AD07
:101A5000B1F1004F23D20029D8BF002105DD11F0DC
:101A6000010102D0019A521E0192009A491C521C97
:101A70009142BFF6DFAD019C891C641E641E019477
:101A80009142F8DBD6E50468AC423FF4D3AD8C68F4
:101A900042F0807224F0E07422438A60CAE5019922
:101AA000491E0191FCD1C5E500F0FF03FFFF0700CF
:101AB000000020FE00000880000300501000C090CD
:101AC0000001005060070020400D030070B584B095
:101AD0004FF0000504002E46029502BF012004B01D
:101AE00070BDE06D28B9204600F00EF9266684F836
:101AF000586020688168C1F3407129B1816821F084
:101B00003F0121F02041816020688168C1F30071AC
:101B100049BB816821F03F0121F0004141F0805133
:101B20008160744874490068B0FBF1F00290009045
:101B3000C8B1B0F1004F80F0D7800028D8BF002096
:101B400005DD10F0010002D00299491E02910099B2
:101B5000401C491C884206DA029A801C521E521E02
:101B600002928842F8DB20688168C1F3007141B9B4
:101B7000E16D41F01001E165216E41F00101216646
:101B800001258168E26DC1F3800112F0100F08BFDA
:101B9000002908D0E06D40F01000E0654FF001052D
:101BA00004B0284670BDE16D21F4807141F002015E
:101BB000E165806810F0010F11D14FF0A0408168FD
:101BC000D0F8080141EA000010F0010F07D14B489E
:101BD0006168826822F47C1242EA01018160E16856
:101BE000E06B627F40EA0100A16841EA423140EACD
:101BF000010094F8241040EA0140012904D1218D0C
:101C00003F4A02EB41410843E16A21B101F4787196
:101C1000226B084310432168CA683A4B1A401043AC
:101C2000C86020680169626B21F040611143016165
:101C3000206881688268C1F38001C2F3C002114349
:101C40002FD1217F94F83820890341EA4201C268EC
:101C500022F0020222F480421143C1602069002870
:101C6000206801690AD041F4803101612068D0F810
:101C7000C01022696FF30D01114307E021F4803198
:101C800001612068D0F8C0106FF30D01C0F8C010DA
:101C900094F8400001280CD02068016921F001016E
:101CA0000161606901282068016B21F00F0113D1E7
:101CB0000FE0D4E911010843D4E91312114340EABB
:101CC0000102206801696FF38A01114341F00101AB
:101CD000E6E7226A521E11430163E06D20F0020024
:101CE00040F00100E0655BE70298401E0290FCD1E5
:101CF00039E7000060070020400D0300000300509A
:101D00000000FEFF0740F0FF30B587B000252F4AE6
:101D100000950195029503950495036810680324C6
:101D2000411C2B48B3F1A04F0AD0A3F1A04CBCF545
:101D3000807C1CBF07B030BD1160012933D12AE07F
:101D40001160012907D1C16C41F40051C164C16C1B
:101D500001F400510591C16C41F00101C164C16CF5
:101D600001F001010591C16C41F00201C164C06C38
:101D7000694600F0020005900520CDE900044FF00F
:101D8000904000F083FA44F20200CDE90004694675
:101D90000295104815E0C16C41F40051C164C16C5A
:101DA00001F400510591C16C41F00101C164C06CA6
:101DB000694600F0010005904020CDE900044FF095
:101DC000904000F063FA07B030BD000050070020DB
:101DD000001002400004004830B5040085B04FF008
:101DE00000000546019004D02168096811F0004FF9
:101DF00001D001259CE0617F21B920772062204637
:101E000000F0B0F820680168D4F80CC001F40002BA
:101E1000D4E901311943636943EA0C031943236987
:101E200019430368DFF81CC103EA0C03194301607E
:101E30002168086810F4000F24D01ABB4248434AB6
:101E40000068B0FBF2F000EB800080000190009091
:101E500018D0B0F1004F6FD20028D8BF002005DDA8
:101E600010F0010002D0019A521E0192009A401C0B
:101E7000521C904206DA019B801C5B1E5B1E019384
:101E80009042F8DBA1F18040B0F5813008BF4FF4FB
:101E900000110CD02E48814208BF4FF4800106D0BB
:101EA0002C4881420CBF4FF000514FF08041A36994
:101EB000294A13F0030FA2F104002DD013F0100FE4
:101EC00002F10403D3F800C00CBF2CEA010C4CEA69
:101ED000010CC3F800C0237E13F0200F1F4BD3F872
:101EE00000C014BF4CEA010C2CEA010CC3F800C07E
:101EF0001B4B1960237E13F0020F136814BF0B43B2
:101F00008B431360227E12F0010F026814BF11434D
:101F100022EA0101016006E013688B431360026846
:101F200022EA01010160607F002804BF0120607780
:101F3000284605B030BDFFE70198401E0190FCD156
:101F4000A0E700000F7E00FF60070020400D0300A7
:101F50000402014008020140040401400C04014055
:101F60001404014000B587B0002100910191029155
:101F700003910491026820480321A2F18043B3F544
:101F8000813314D01D4B9A4220D1C26C42F0010221
:101F9000C264C06C00F0010005908020CDE9000112
:101FA00069464FF0904000F071F907B000BDC26C77
:101FB00042F00102C264C06C00F0010005900220F2
:101FC000CDE9000169464FF0904011E00C4B9A4278
:101FD0001CBF07B000BDC26C42F00202C264C06CFC
:101FE00000F0020005900120CDE900016946054896
:101FF00000F04CF907B000BD00100240040201409F
:102000000C020140000400482DE9F04704464079E5
:102010000D46012804BF0220BDE8F0874FF00108FB
:1020200084F8058002202071A86802F010060428B8
:102030004DD14FF0030992B12068406B10F0004F72
:102040002CD000BF00F034FA012822D9206940F0DA
:102050000800206184F804900320BDE8F08700F0B8
:1020600027FA07462068406B10F4004F0AD000BFE3
:1020700000F01EFAC01B0128E8D82068406B10F45D
:10208000004FF5D1012000F0EDF82168686A08647E
:102090000AE02068406B10F0004FD3D1012000F01F
:1020A000E1F82168686A48642068816C40F2FF3278
:1020B000B2409143AA6AB240114381642068C16C66
:1020C000FF22B2409143EA6AB2401143C164E86919
:1020D000012808D12168886B1F22B24090432A6AE8
:1020E000B240104388632068C06B0721B14020EAEA
:1020F0000101A86910F0010F05D110F0020F5AD1AB
:102100006869002857D000206B69AA681A43024307
:102110004FF48070B04021EA0000297901290CBFFA
:102120004FF48071002111434FF40072B24090438C
:102130006A79012A0CBF4FF40072002242EA0109B9
:1021400020F440472868022818BF074335D000BF55
:10215000216809FA06F03843C863206801684FF423
:102160008042B240914301602168086840F6FE72E7
:10217000B2409043EA68B2401043086020680168AA
:10218000C022B24091430160287B297CC0F38300C8
:1021900001F03C0140EA811021680A6E40F60F739D
:1021A000B3409A43B0401043086684F8048000208E
:1021B0006071BDE8F0870120A6E700F0C1FD064987
:1021C000884288BF47F40047C2D80449884288BF84
:1021D00047F48047BCE700000068890900B4C404E4
:1021E000002804BF0120704770B50446007900251F
:1021F00018B96571204600F007F8022020712561AA
:1022000001202071002070BD00B587B00021009131
:1022100001910291039104910068A0F1A041B1F5F0
:1022200000611CBF07B000BD0D48C16C41F4803196
:10223000C164C16C01F480310591C16C41F00101B0
:10224000C164C06C694600F0010005901020009048
:10225000032001904FF0904000F018F807B000BD47
:102260000010024070B5044600F022F90546B4F1B2
:10227000FF3F02D004484068044400F019F9401BB5
:10228000A042FAD370BD0000540700200B68002262
:10229000002B08BF70472DE9F84F804EDFF800E2B1
:1022A00001274FF0030A4FF00F0800BF0B6807FA31
:1022B00002F52B4000F0EB80D1F804C0BCF1020F16
:1022C00018BFBCF1120F15D14FEAD20C00EB8C04F1
:1022D000D4F820904FEA427C4FEADC6C08FA0CFB01
:1022E00029EA0B09D1F810B00BFA0CFC4CEA090CE6
:1022F000C4F820C0D0F800904FEA420C91F804B026
:102300000AFA0CF40BF0030B29EA04090BFA0CFB94
:102310004BEA0909C0F80090D1F80490B9F1010F17
:1023200018BFB9F1020F05D0B9F1110F18BFB9F1FB
:10233000120F18D1D0F80890D1F80CB029EA04098E
:102340000BFA0CFB4BEA0909C0F80890D0F804908E
:1023500029EA050591F80490C9F3001909FA02F970
:1023600049EA05054560C56825EA04048D6805FA53
:102370000CFC4CEA040CC0F80CC0D1F804C01CF0F2
:10238000805F7CD0D6F860C04CF0010CC6F860C00D
:10239000D6F860C00CF0010CCDF800C022F0030CA0
:1023A0000CF1804404F58034A5684FEA827C4FEA42
:1023B0001C7C08FA0CF925EA0905B0F1904F08BF1A
:1023C0004FF0000928D0A0F19049B9F5806908BF05
:1023D0004FF0010920D0A0F19049B9F5006908BF7C
:1023E0004FF0020918D0A0F19049B9F5406908BF33
:1023F0004FF0030910D0A0F19049B9F5805908BFFA
:102400004FF0040908D0A0F19049B9F5A0590CBFCC
:102410004FF005094FF0060909FA0CFC4CEA050CCF
:10242000C4F808C0DEF800C04C682CEA030C14F4B1
:10243000803F18BF4CEA030CCEF800C0194CD4F80A
:1024400000C04D682CEA030C15F4003F18BF4CEA9D
:10245000030CC4F800C0144CD4F800C04D682CEA3A
:10246000030C15F4801F18BF4CEA030CC4F800C01D
:102470000E4CD4F800C04D682CEA030C00E006E0D6
:1024800015F4001F18BF4CEA030CC4F800C00B6819
:10249000521CD3407FF40AAFBDE8F88F0010024011
:1024A0000004014004040140080401400C04014000
:1024B0000148806870470000540700200248816886
:1024C00042681144816070475407002010B5002411
:1024D000032000F08DF8042000F008F8002814BF55
:1024E000012400F025F8204610BD000070B50E4E06
:1024F00005460024706898B14FF47A71B1FBF0F092
:102500000A490968B1FBF0F000F0E2FE40B9102D75
:1025100006D200222946501E00F038F8356000E04F
:102520000124204670BD00005407002060070020F1
:102530000C4881B0016E41F001010166016E01F0AD
:1025400001010091816D41F080518165806D00F045
:10255000805000900448816821F48041816001B07E
:102560007047000000100240007000400028B8BF13
:10257000704700F01F01012202FA01F140098000BA
:1025800000F1E020C0F8001170470000174B10B4B4
:102590001B68C3F30223C3F1070CBCF1040F88BF0F
:1025A0004FF0040C1C1D072C34BF0023DB1E01243C
:1025B00004FA0CFCACF1010C0CEA0101994004FA9C
:1025C00003F35B1E1A40114300284FEA0111A1BF1B
:1025D00000F1E02080F8001410BC704700F00F00FC
:1025E00000F1E02080F8141D10BC70470CED00E0F5
:1025F000074900F007000A684FF6FF031A4042EA55
:10260000002040F0FD7040F08060086070470000DE
:102610000CED00E038B504004FF000051FBF94F842
:102620003A00052894F83A00022804BF012038BD7A
:102630003148016E41F001010166006E00F00100B9
:10264000009094F83A00002804BF002084F8390074
:10265000204600F055F8A1682848402918BF602995
:1026600021680A68E36A22F0100242EA03020A6063
:10267000D4E9011241EA020122D0D4E9032342EA5B
:10268000030241EA0201227D012A0CBF4FF480724D
:1026900000221143626A1143A26A1143228E41EA69
:1026A000C24194F8342041EA026221680B68184064
:1026B000104308602068816911F0004F13D108E0D1
:1026C000237D2269012B0CBF4FF4807300231A4332
:1026D000DFE7D4E906121143226A836923F03F033E
:1026E0001A431143816194F83A00002804BF012085
:1026F00084F83A00284638BD00100240113E00E040
:1027000000B587B0002100910191029103910491DD
:102710001F4B02681F4803219A420ED1C26C42F03F
:102720000102C264C06C00F0010005900E20CDE9EA
:10273000000169464FF0904026E0174B9A4211D1B4
:10274000C26C42F00102C264C06C00F0010005904E
:10275000E020CDE9000169464FF09040FFF796FD7B
:1027600007B000BD0D4B9A421CBF07B000BDC26C44
:1027700042F00202C264C06C00F002000590072023
:10278000CDE9000169460648FFF780FD07B000BDAE
:10279000000301400010024004030140080301400F
:1027A000000400482C4932222C4B09684A432C492A
:1027B00050B1B0F5007F08682BD020F4C06040F421
:1027C0008060086000207047086800F4C060B0F5C1
:1027D000806FD1F8800020F4807002D0C1F88000B2
:1027E000F0E7C1F88000086820F4C06040F4007091
:1027F0000860B2FBF3F000F101004A6912F4806F47
:102800001CBF0028401EF8D1486910F4806F20D109
:10281000D8E700F4C060B0F5806FD1F8800040F4D4
:102820008070DBD1C1F88000086820F4C06040F4FB
:1028300000700860B2FBF3F000F101004A6912F485
:10284000806F1CBF0028401EF8D1486910F4806FCB
:10285000B8D04FF0030070476007002040420F00DF
:10286000007000402DE9F843044600680027AC4D95
:1028700010F4002F6DD0A86D4FF0000810F0805FAD
:1028800009D1A86D40F08050A865A86D4FF00108EF
:1028900000F080500090DFF88C92D9F8000040F4EE
:1028A0008070C9F80000FFF703FE0646D9F8000063
:1028B00010F4807F0AD100BFFFF7FAFD801B0228C9
:1028C00031D8D9F8000010F4807FF5D0D5F8900009
:1028D00010F440701CBF216C814211D0D5F89000DB
:1028E000D5F8901020F4407041F48031C5F8901074
:1028F000D5F8901021F48031C5F89010C5F89000FB
:1029000010F0010F16D0FFF7D3FD0646D5F8900062
:1029100010F0020F08BF41F288390BD1FFF7C8FD54
:10292000801B484501D903270CE0D5F8900010F032
:10293000020FF3D0D5F89000216C20F440700843CA
:10294000C5F89000B8F1000F03D0A86D20F08050BA
:10295000A865207810F0010F07D0D5F888006168CD
:1029600020F003000843C5F88800207810F0020F1B
:1029700007D0D5F88800A16820F00C000843C5F8FE
:102980008800207810F0040F07D0D5F88800E1689F
:1029900020F030000843C5F88800207810F0080FB8
:1029A00007D0D5F88800216920F0C0000843C5F899
:1029B0008800207810F0200F07D0D5F888006169D2
:1029C00020F440600843C5F88800207810F0400FDC
:1029D00007D0D5F88800A16920F440500843C5F815
:1029E0008800207810F0800F07D0D5F88800E169C2
:1029F00020F440400843C5F88800208810F4807F08
:102A000007D0D5F88800216A20F440300843C5F883
:102A10008800208810F4007F07D0D5F88800616A0C
:102A200020F440200843C5F88800208810F4806F07
:102A30000FD0D5F88800A16A20F440100843C5F8EB
:102A40008800A06AB0F5801F03D1E86840F48010C8
:102A5000E860208810F4006F0FD0D5F88800E16A94
:102A600020F440000843C5F88800E06AB0F5800F04
:102A700003D1E86840F48010E860208810F4805F9B
:102A80000FD0D5F88800216B20F040700843C5F8BE
:102A90008800206BB0F1807F03D1E86840F480109B
:102AA000E860208810F4005F0FD0D5F88800616BD3
:102AB00020F040600843C5F88800606BB0F1006FFB
:102AC00003D1E86840F48010E860208810F4804F5B
:102AD0000FD0D5F88800A16B20F040600843C5F8FE
:102AE0008800A06BB0F1006F03D1E86840F480105B
:102AF000E860208810F4004F0FD0D5F88800E16B13
:102B000020F040500843C5F88800E06BB0F1805FCA
:102B100003D1E86840F48030E8603846BDE8F883C7
:102B200000100240007000402DE9F0470E460500FD
:102B30004FF000087ED0764F386800F00F008642D4
:102B400009D9386820F00F0030433860386800F049
:102B50000F00B0426ED129686E4C11F0010F41F2A6
:102B6000883A66D06868DFF8B091032806D002285A
:102B7000206832D010F4806F5CD031E0206810F013
:102B8000007F57D0E06800F00302E068C0F3031054
:102B9000401C032A19D0614AB2FBF0F0E268C2F38C
:102BA00006225043E268C2F34162521C5200B0FB5D
:102BB000F2F0484520D9A06810F0F00F14D011F0C1
:102BC000020F19D0A86878B116E0554AB2FBF0F0B0
:102BD000E268C2F306225043E4E710F4003F60D0FD
:102BE00000F0D8F8484507D9A06820F0F00040F080
:102BF0008000A0604FF08008A068696820F00300A2
:102C00000843A060FFF754FC8146A068696800F0A3
:102C10000C00B0EB810F0CD0FFF74AFCA0EB0900D1
:102C200050453BD8A068696800F00C00B0EB810FFC
:102C3000F2D100E035E0286810F0020F34D010F037
:102C4000040F03D0A06840F4E060A060287810F082
:102C5000080F05D0A06820F4605040F4E060A06048
:102C6000A068A96820F0F0000843A060386800F070
:102C70000F00B04225D9386820F00F00304338608B
:102C8000FFF716FC8046386800F00F00B04218D0FD
:102C9000FFF70EFCA0EB080050450DD90320BDE85E
:102CA000F0870120BDE8F087B8F1800F04BFA0686D
:102CB00020F0F000DAD1D8E7386800F00F00B04219
:102CC000E6D1287810F0040F05D0A068E96820F458
:102CD000E0600843A060287810F0080F06D0A068D4
:102CE000296920F4605040EAC100A06000F052F869
:102CF000A1680C4AC1F30311515C01F01F01C840E7
:102D00000949086009480068BDE8F047FFF7EEBBD5
:102D1000002002400010024000B4C4040024F4006B
:102D200000127A00F88D0008600700205407002088
:102D30000248016841F40021016070470010024020
:102D400001480068704700006007002005480649F8
:102D500000688968054AC1F30221515C01F01F0136
:102D6000C84070476007002000100240088E00082D
:102D70000548064900688968054AC1F3C221515CCB
:102D800001F01F01C840704760070020001002409A
:102D9000088E00081849886800F00C021748042AB9
:102DA00008BF70478A6802F00C03154A082B04BF5D
:102DB000104670478B684FF00C0C3CEA03031CBFB5
:102DC00000207047CB6803F0030CCB68C3F30313F8
:102DD0005B1CBCF1030F14BFB0FBF3F0B2FBF3F0CC
:102DE000CA68C968C2F306225043C1F34161491C55
:102DF0004900B0FBF1F07047001002400024F400DD
:102E000000127A00002804BF012070472DE9F84322
:102E100005460078FF4F10F0010F55D0B868F968EB
:102E200000F00C0001F003010C2802D0082820D08B
:102E300001E003291DD06868B0F5803F22D0B0F5CD
:102E4000A02F38680CBF40F4802020F48030386018
:102E500038680CBF40F4803020F480203860686807
:102E600000B3FFF725FB0446386810F4003F0ED08E
:102E70002AE0386810F4003F26D06868002800F087
:102E8000208221E0386840F480303860E7E7FFF7BF
:102E90000FFB001B642800F28481386810F4003FA7
:102EA000F5D011E0FFF704FB0446386810F4003F4A
:102EB0000AD000BFFFF7FCFA001B642800F2718102
:102EC000386810F4003FF5D1287810F0020F58D080
:102ED000B86800F00C01F8680C2900F0030002D07B
:102EE000042911D001E002280ED0E86800283868D3
:102EF00033D040F480703860FFF7DAFA044638685F
:102F000010F4806F17D020E0386810F4806F03D081
:102F1000E868002800F0D5817868297C20F0FE4020
:102F200040EA01607860BC480068FFF7DFFA0028DB
:102F300040F0C78125E0FFF7BBFA001B022800F232
:102F40003081386810F4806FF5D07868297C20F0E3
:102F5000FE4040EA0160786013E020F48070386041
:102F6000FFF7A6FA0446386810F4806F09D000BF56
:102F7000FFF79EFA001B02287ED8386810F4806F95
:102F8000F6D1287810F0080F32D068690028D7F8F9
:102F9000940016D040F00100C7F89400FFF788FABB
:102FA0000446D7F8940010F0020F21D1FFF780FA01
:102FB000001B022860D8D7F8940010F0020FF5D05B
:102FC00016E020F00100C7F89400FFF771FA0446FC
:102FD000D7F8940010F0020F0AD000BFFFF768FA8C
:102FE000001B022848D8D7F8940010F0020FF5D142
:102FF000287810F0040F78D0B86D4FF0000810F06A
:10300000805F09D1B86D40F08050B865B86D4FF061
:10301000010800F080500090804E306810F4807FEE
:1030200013D1306840F480703060FFF741FA0446F5
:10303000306810F4807F08D1FFF73AFA001B0228AD
:103040001AD8306810F4807FF6D0A868012821D003
:103050000528D7F890000CBF40F0040020F00100D4
:10306000C7F89000D7F890000CBF40F0010020F0A6
:103070000400C7F8900000E093E0A86841F28836A9
:10308000D0B1FFF715FA0446D7F8900010F0020F00
:1030900007D023E0D7F8900040F00100C7F8900077
:1030A000E9E7FFF705FA001BB0427AD8D7F890009D
:1030B00010F0020FF5D011E0FFF7FAF90446D7F847
:1030C000900010F0020F09D0FFF7F2F9001BB04298
:1030D00067D8D7F8900010F0020FF5D1B8F1000FC3
:1030E00003D0B86D20F08050B865287810F0200F1C
:1030F00032D0A8690028D7F8980016D040F0010017
:10310000C7F89800FFF7D4F90446D7F8980010F0F4
:10311000020F21D1FFF7CCF9001B022841D8D7F8C4
:10312000980010F0020FF5D016E020F00100C7F86B
:103130009800FFF7BDF90446D7F8980010F0020F89
:103140000AD000BFFFF7B4F9001B022829D8D7F82E
:10315000980010F0020FF5D1E869E8B3B9683C4671
:103160000C2232EA01017BD00228206820F0807016
:10317000206019D0E06820F00300E060E06820F4EF
:10318000881020F08070E060FFF792F90546206813
:1031900010F0007F20D000BFFFF78AF9401B022803
:1031A00059D90320BDE8F883FFF782F90646206865
:1031B00010F0007F09D000BFFFF77AF9801B0228CA
:1031C000EFD8206810F0007FF6D1D5E908016FF044
:1031D0000F0202EB011100E076E00843298E520451
:1031E000490802EB4151AA6A41EA0221084395F8D5
:1031F00034104FF07E42490802EB4161084395F8D4
:103200002C1040EAC160E168054A11400843E060C3
:10321000206807E0001002405407002000700040C2
:103220000C809F0140F080702060E06840F080706A
:10323000E060FFF73DF90546206810F0007F43D1BC
:10324000FFF736F9401B0228ABD8206810F0007F4A
:10325000F6D039E004E0206810F0007F9CD133E024
:10326000012808BFBDE8F883E0682A6A00F003017E
:10327000914226D1696A00F0F002090110399142A9
:103280001FD1AA6A00F4FE41B1EB022F19D195F8C3
:103290002C2000F07841B1EBC26F12D1298E00F4DE
:1032A000C00249084905A1F50011914209D195F8DC
:1032B000341000F0C06049084906A1F10071814254
:1032C00002D00120BDE8F8830020BDE8F8837047F4
:1032D000411EB1F1807F24BF012070474FF0E020F4
:1032E0004161054AF02182F8141D00218161072106
:1032F00001610020704700000FE000E010B5FFF70B
:10330000E6FF10BD90F83C20012A04BF0220704760
:1033100030B4012280F83C20CA688B6822F44072E5
:103320001A434B6822F480621A430B6822F400624D
:103330001A430B6922F480521A434B6922F400525B
:103340001A430B6B22F480421A430B8B22F4702237
:1033500042EA0342DFF860C00368184C634518BFB7
:10336000A34204D1CD6922F0805242EA05026345AE
:1033700018BFA34217D10D8D22F4700242EA055204
:103380000D6A22F0807242EA05024D6A22F0007254
:1033900042EA0502634518BFA34204D1C96A22F07C
:1033A000005242EA01025A644FF0000180F83C10DA
:1033B00030BC084670470000002C0140003401403A
:1033C00090F83C30012B0DBF0220012380F83C30E7
:1033D0007047F0B41368042B20D004DC012B10D00C
:1033E000022B15D003E0082B1ED0102B23D04FF05A
:1033F000000C634665466446012922D0022934D078
:1034000046E000254FF0010C4FF400730924F3E768
:103410000125AB024FF0020C0A24EDE70225AB02B6
:103420004FF0040C0B24E7E703254FF0080C4FF492
:1034300080530C24E0E70425EB024FF0100C0D2420
:10344000DAE701680E6E576826EA0C0607FA05F5FA
:10345000926805EA0C0C4CEA060CA2402CEA030C1C
:103460001A4042EA0C020A6612E001684E6E576882
:1034700026EA0C0607FA05F5926805EA0C0C4CEAF8
:10348000060CA2402CEA030C1A4042EA0C024A66DF
:10349000002180F83C10F0BC0846704790F83C20B2
:1034A000012A04BF0220704730B44FF0010C80F8AD
:1034B0003CC0022280F83D20026853689468A2F163
:1034C0008045B5F596351CBFA2F18045B5F59A3516
:1034D00003D14D6823F470032B4323F070030D6870
:1034E00023F000732B43896824F080042143536048
:1034F0000268916080F83DC0002180F83C1030BC2B
:1035000008467047002804BF0120704710B50446E4
:1035100090F83D0028B9002084F83C00204600F0D7
:103520000DF8022084F83D00211D206802F0B4FF50
:10353000012084F83D00002010BD0000006881B02B
:10354000A0F18041B1F596311CBF01B0704705482C
:10355000016E41F400610166006E00F400600090AD
:1035600001B070470010024030B587B000210091D3
:1035700001910291039104910068A0F18041B1F59D
:1035800096311CBF07B030BD1F48C16C41F004012B
:10359000C164C16C01F004010591C16C41F00201EC
:1035A000C164C16C01F002010591C16C41F00101DF
:1035B000C164C06C022400F0010005904FF400507B
:1035C000CDE900040425029469461048CDE903457D
:1035D000FEF75CFEA003CDE90004029469460C48A6
:1035E000CDE90345FEF752FE4FF4B850CDE9000493
:1035F00006200294CDE9034069464FF09040FEF763
:1036000045FE07B030BD0000001002400008004831
:10361000000400482DE9F04F054690F83C000C46A8
:1036200001280DBF0220012685F83C60BDE8F08F1F
:10363000022085F83D00DFF838C3CE4FDFF838832D
:10364000CE49CF4B0C2A00F0C48006DC6AB1042AB4
:103650005ED0082A71D000F083B9102A00F00681EC
:10366000142A00F0408100F07BB92868026A22F039
:1036700001020262026AD0F80490D0F818A0D4F8CF
:1036800000B02AF0730A2AF4803A4BEA0A0AD4F806
:1036900008B022F002024BEA0202884218BF9842A8
:1036A00004D060451CBFB842404507D1D4F80CB0E7
:1036B00022F008024BEA020222F00402884218BFFC
:1036C000984204D060451CBFB842404507D16369A9
:1036D00029F4407143EA0101A36943EA0109C0F8F2
:1036E0000490C0F818A0616841630262286881698B
:1036F00041F0080181612868816921F0040181613C
:1037000028688169226941EA0201816100F028B9D3
:103710002146286802F01AFF2868816941F4006197
:1037200081612868816921F48061816128688169EB
:10373000226941EA0221E8E7FFE72868026A22F4E9
:1037400080720262026AD0F80490D0F81CA0D4F80B
:1037500000B02AF0730A2AF4803A4BEA0A0AD4F835
:1037600008B022F4007242EA0B22884218BF984245
:1037700007D1D4F80CB022F4006242EA0B2222F402
:103780008062884218BF984204D060451CBFB8428E
:10379000404507D1636929F4405141EA0311A36907
:1037A00041EA0319C0F80490C0F81CA06168C16325
:1037B00002622868C16941F00801C1612868C169D5
:1037C00021F00401C1612868C169226941EA02014E
:1037D0004AE02868026A22F480520262026AD0F843
:1037E0000490D0F81CA0D4F800B02AF4E64A2AF0DD
:1037F000807A4AEA0B2AD4F808B022F4005242EA4E
:103800000B32884218BF984207D1D4F80CB022F48A
:10381000004242EA0B3222F48042884218BF9842AA
:1038200004D060451CBFB842404507D1636929F404
:10383000404141EA8311A36941EA8319C0F8049029
:10384000C0F81CA06168016402622868C16941F483
:103850000061C1612868C16921F48061C161286883
:10386000C169226941EA0221C16179E02868026ADE
:1038700022F480320262D0F820A04268D0F8509042
:10388000D4F800B029F0700929F480394BEA09090D
:10389000B4F808B02AF4003A4AEA0B4A884218BF42
:1038A000984204D060451CBFB842404504D122F480
:1038B0008031626941EA02224260C0F8509061683A
:1038C0008164C0F820A02868016D41F008010165FD
:1038D0002868016D21F0040101652868016D2269E5
:1038E00041EA02013BE02868026A22F48012026287
:1038F000D0F820A04268D0F85090D4F800B029F455
:10390000E04929F0807949EA0B29B4F808B02AF493
:10391000001A4AEA0B5A884218BF984204D0604500
:103920001CBFB842404504D122F48021626941EABB
:1039300082224260C0F850906168C164C0F820A043
:103940002868016D41F4006101652868016D21F46A
:10395000806101652868016D226941EA02210165E3
:1039600085F83D604FF0000085F83C00BDE8F08F21
:10397000004001400044014000480140002C01404B
:1039800000340140002804BF0120704710B50446F0
:1039900090F83D0028B9002084F83C00204600F053
:1039A0000CF8022084F83D00211D206802F074FD0F
:1039B000012084F83D00002010BD704770B504461A
:1039C00090F83C00012804BF022070BD012584F856
:1039D0003C50022084F83D00204602F0FFFD01002B
:1039E0004FF0000005D084F83D5084F83C000120E1
:1039F00070BD2168CA6822F04002CA602168CA68A6
:103A000022F48042CA6084F83D5084F83C000020D3
:103A100070BD90F87C10012904BF0220704701217D
:103A200080F87C102421C0F8801001680A680B68B7
:103A300023F001030B6022F000510022426603686C
:103A400019602021C0F8801080F87C201046704753
:103A500090F87C10012904BF0220704710B40121A6
:103A600085B080F87C102422C0F88020026813689A
:103A7000D2F800C02CF0010CC2F800C043F0005294
:103A80004B07436603681A601BA3D3E90023CDE903
:103A900000231BA3D3E90023CDE90223426E002AB1
:103AA00004BFA0F86A10A0F868101AD002689168E4
:103AB0009268C1F34261520F1DF802C04FEACC0474
:103AC0000DF1080C1CF80220B4FBF2F4A0F86A40D7
:103AD0001DF801201CF80110D200B2FBF1F2A0F891
:103AE00068202021C0F88010002180F87C1005B0EB
:103AF000084610BC704700000101010307010000E7
:103B0000080402040801010190F87C20012A04BF86
:103B10000220704730B4012384B080F87C30242226
:103B2000C0F880200268D2F800C0146824F00104B4
:103B300014600268946824F06064214391601B491A
:103B4000D1E90021CDE90021194AD2E90012CDE9DD
:103B50000212416E002904BFA0F86A30A0F8683054
:103B600016D001688A688968C2F34262490F1DF85D
:103B70000140E50002AC615CB5FBF1F5A0F86A50CC
:103B80001DF80210A25CC900B1FBF2F2A0F8682097
:103B90000168C1F800C02021C0F88010002180F821
:103BA0007C1004B0084630BC70470000F83A0008AA
:103BB000003B000890F87C20012A04BF02207047D7
:103BC00030B4012384B080F87C302422C0F88020F7
:103BD0000268D2F800C0146824F00104146002687E
:103BE000946824F06044214391601B49D1E900218D
:103BF000CDE90021194AD2E90012CDE90212416E45
:103C0000002904BFA0F86A30A0F8683016D0016817
:103C10008A688968C2F34262490F1DF80140E500D5
:103C200002AC615CB5FBF1F5A0F86A501DF802101A
:103C3000A25CC900B1FBF2F2A0F868200168C1F8EB
:103C400000C02021C0F88010002180F87C1004B052
:103C5000084630BC70470000F83A0008003B0008F6
:103C6000002804BF0120704710B50446D0F880003A
:103C700028B9002084F87C00204600F029F8242090
:103C8000C4F880002068016821F00101016020462D
:103C900003F048F8012808BF10BDA06A00281CBF27
:103CA000204602F0A1FF2068416821F49041416064
:103CB0002068816821F02A0181602068016841F054
:103CC000010101602046BDE8104002F0FABF00008B
:103CD00000B587B0002100910191029103910491F8
:103CE0000068A0F18041B1F588411CBF07B000BD5C
:103CF0000E48816D41F400318165816D01F4003120
:103D00000591C16C41F00201C164C06C694600F0CC
:103D100002000590182000900220019007200490D6
:103D20000348FEF7B3FA07B000BD000000100240E0
:103D30000004004802F0D8FC174C0825D4F82001F4
:103D4000C06910F0080F07D0134803F085FCD4F8C1
:103D50002001056204F0F8F8D4F82001C06910F0E1
:103D6000800F1CBF0C4803F020FDD4F82001C1696E
:103D700011F0200FE2D0406AC1B2074803F076FC90
:103D80000088012804D0022808BF04F0DDF8D5E738
:103D900004F0D4F8D2E70000C4050020012908BFD0
:103DA000002124D0042908BF012120D0102908BFF8
:103DB00002211CD0402908BF032118D0B1F5807F13
:103DC00008BF042113D0B1F5806F08BF05210ED0C4
:103DD000B1F5805F08BF062109D0B1F5804F08BF5B
:103DE000072104D0B1F5803F0CBF08210921064A04
:103DF0001830525C10440268044B595C082303FAE3
:103E000001F1114301607047109000081A900008FA
:103E1000012908BF002124D0042908BF012120D096
:103E2000102908BF02211CD0402908BF032118D047
:103E3000B1F5807F08BF042113D0B1F5806F08BFB2
:103E400005210ED0B1F5805F08BF062109D0B1F57C
:103E5000804F08BF072104D0B1F5803F0CBF082177
:103E60000921084B18305B5C1844D0F800C0064BA1
:103E7000595C064B8B402CEA030302FA01F119430B
:103E800001607047109000081A900008730001004C
:103E900010B50446406802F0C2F9A168086110BD7F
:103EA0000068012102F029BA002808BF704710B548
:103EB0000446007E012818BF10BD217B0020012987
:103EC00004D0022910D003291ED026E0A16881F871
:103ED00024000121606802F0D0F9E28AB4F90E10E2
:103EE000606802F04BF90CE0A16881F82400002121
:103EF000606802F0C2F9E28AB4F91010606802F05A
:103F00003DF950B1022009E0A168012081F82400A8
:103F1000A068D4F812100161F4E70320207610BDE8
:103F200001230373C181C282037643767047022363
:103F300003730182C282012101760021417670471C
:103F4000006802F0A8B910B5406802F07EF9BDE83B
:103F5000104002F09AB8407E704780680068704751
:103F6000806840687047027B0121012A04D0022A40
:103F700007D0032A0AD00FE0B0F90E0000280BDAB0
:103F800008E0B0F91000002806DA03E0B0F91200EA
:103F9000002801DA4FF0FF31084670478068C0689A
:103FA0007047806800697047027B0021012A08BFC2
:103FB000B0F90E1008467047406802F03AB9006840
:103FC00002F094B98068B0F91E0070478068D0F89C
:103FD0001A0070478068D0F8160070478360C0E907
:103FE000001200210173C1810182C18201767047F4
:103FF000032202734182091481820121017600218A
:10400000417670478268518280688182704710B51E
:1040100004460068032102F070F900281CBF01214A
:10402000217610BD0068072102F067B9406802F0F0
:104030002AB90000014661F30F0044F6E61211FBB5
:1040400002F244F6E61311FB23F10A4411444942FB
:10405000C913B1F5004FA8BF47F6FF7104DA11F597
:10406000004FB4BF054909B261F31F4011F5004F7D
:1040700004BF48F2010161F31F4070470080FFFF59
:1040800070B50546084600F059F82AB203B212FB93
:1040900003F14FEA254C05141CFB05F0081AC01368
:1040A0001649B0F5004FA8BF47F6FF7004DA10F5C7
:1040B000004FB4BF084600B260F30F04104E10F575
:1040C000004F08BF66F30F0412FB05F01CFB03F260
:1040D0001044C013B0F5004FA8BF47F6FF7103DAD4
:1040E00010F5004FA8BF01B2204661F31F4011F543
:1040F000004F08BF66F31F4070BD00000080FFFF47
:104100000180FFFF10B50446084600F017F814FBC5
:1041100000F12214031412FB03FC61444FEAE13C5A
:1041200029466CF30F0114FB03F312FB00F0C01AD5
:10413000C01360F31F41084610BD000000F50041A8
:10414000890911F4407C00F50041C1F38712174939
:10415000C2F1FF0319D0BCF5807F1FD0BCF5007FF2
:104160000AD0BCF5407F18BF704731F8133031F8E2
:10417000121063F31F400FE031F8122031F81310D2
:1041800062F31F4061F30F00704731F8122031F8DD
:104190001310524262F31F404942F3E731F81330E3
:1041A00031F812105B4263F31F40EBE7108E0008FA
:1041B000F8B58C460446DDE90710069FC4F830C008
:1041C000C4E9300108481E4615460090074B084ACE
:1041D00021466046FCF752FEE763C4E90D562046CF
:1041E00000F05AFBF8BD0000F5410008FD41000851
:1041F0009148000810B500F04FFB10BD2DE9F041CB
:1042000005468CB00020984614460E468DF80400F2
:104210004F0912D07A1E0021284603F0ADFE002877
:1042200008BF0B2000F02D82D5F8C40006F01F0651
:1042300018B17A1E002103F09FFE0D2E80F011832D
:10424000DFE806F0B207A1B1B0B0AFAEADACABAA3B
:10425000A900267805208DF80800462E56D027DCC8
:104260000E2E71D00ADC0E2E40D2DFE806F0603F41
:104270003F6E3F838383838383838383162E79D02A
:1042800009DCA6F10F00072830D2DFE800F0733F09
:104290003F2F2F7373001C2E5DD004DC172E18BF28
:1042A000182E23D166E01D2E5DD0412E62D01DE078
:1042B000612E5FD010DCA6F14700152816D2DFE88A
:1042C00000F02525151515151515591515155959EC
:1042D0005959595959152500772E17D00EDC742ECF
:1042E00033D006DC642E18BF652E43D04FF0020099
:1042F000C7E1752E18BF762EF8D107E0782E18BFCB
:10430000792E03D07D2E18BF7E2EEFD16078A17854
:10431000227900EB0120E1784FEA014101EB0261D3
:1043200000EB01023146284603F026FEF5E16478F1
:1043300031462246D5F8C40003F01EFE224631461F
:10434000284603F019FEE8E114E062783146284679
:1043500003F012FEE1E162780021D5F8C40003F019
:1043600006FE0120D9E162780121D5F8C40003F0EE
:10437000FEFD5DE16078A17800EB01223146284620
:1043800003F0FAFDC9E1217803208DF808008329A4
:1043900080F0768109E045E22DE21BE2F3E1BFE126
:1043A000A9E179E15DE26FE15DE28800784440686F
:1043B000874400000C020000A60200000C0200006E
:1043C0000C020000A6020000800200008002000033
:1043D00080020000800200008002000080020000D5
:1043E00080020000800200008002000080020000C5
:1043F00080020000800200008002000080020000B5
:1044000080020000800200008002000080020000A4
:104410008002000080020000800200008002000094
:1044200080020000300200005C020000A6020000D2
:104430008002000080020000800200000C020000E8
:10444000CC020000CC020000CC020000CC02000034
:10445000CC020000CC020000CC020000CC02000024
:10446000CC020000CC020000CC020000CC02000014
:10447000CC020000CC020000CC020000CC02000004
:10448000CC020000CC020000CC020000CC020000F4
:10449000CC020000CC020000CC020000CC020000E4
:1044A000CC020000CC020000CC020000CC020000D4
:1044B000CC020000CC02000080020000CC02000010
:1044C000CC020000CC020000CC020000A6020000DA
:1044D000A6020000A6020000800200008002000088
:1044E00080020000800200000C020000A602000012
:1044F00080020000800200008002000080020000B4
:1045000080020000800200008002000080020000A3
:104510008002000080020000800200000C02000007
:10452000A6020000CC020000800200008002000011
:10453000800200008002000080020000CC02000027
:10454000CC02000080020000800200000C0200008B
:104550000C020000A6020000A6020000A602000055
:10456000A6020000A60200000C020000800200006B
:1045700080020000A6020000CC02000080020000C1
:10458000800200000C020000A6020000A60200004B
:10459000A6020000A6020000A6020000A60200007B
:1045A000A6020000A6020000A6020000A60200006B
:1045B000A60200000C020000CC0200000C02000069
:1045C00001AA284603F098F900909DF804000028FD
:1045D00000F05281D5E90C0C01236A46F02100F06D
:1045E0001DB900BFD5F8C400002800F03C810021AF
:1045F00003F078F98DF80000D5E90C0C01236A4628
:10460000F021E04701208DF804000CB0BDE8F081F6
:10461000D5F8C400002800F02681012103F062F9DA
:104620008DF80000D5E90C0C01236A46F021E04723
:10463000012072E001AA284603F05EF900909DF87F
:104640000400002800F01881D5E90C0C02236A460A
:10465000F021E0470CB0BDE8F08101AA284603F044
:104660004BF900909DF80400002800F00581D5E981
:104670000C0C04236A46F021E0470CB0BDE8F08141
:1046800003208DF80800EEE0217807208DF808005F
:10469000284603F0D7F840E0002004A902460A5457
:1046A000401CC0B22028FAD3002005E00B18401CA3
:1046B000C0B2DA701D2804D2D5F8C020125C092AD5
:1046C000F4D1D5F8C020411D2023515C8DF8101085
:1046D000C11D0930515C8DF81110D5F8C01004AA25
:1046E000085C8DF81200D5E90C0CF021E0470120A0
:1046F0008DF80400BAE020796179E37800EB0120BD
:1047000082B22078617800EB0120A178090401EBE6
:1047100003610144284603F0CDF88DF80400A2E0BF
:1047200006A80090217807AB03AA284603F0A6FB51
:10473000BDF91C005349C0EB0010800081FB001044
:104740008110A1EBE0708DF81000010A8DF81110B6
:10475000010C8DF81210000E8DF81300BDF8180032
:104760008DF81400000A8DF81500BDF80C008DF8C6
:104770001600000A8DF81700D5E90C0C082304AACE
:10478000F021E0476FE0E079227A237900EB022004
:104790001FFA80FC6078A278217800EB0220E27892
:1047A000120402EB0362104400EB8000364B400021
:1047B0000022C3FB00204211A2EBE07003B260793B
:1047C000A27900EB022000B200906246284603F076
:1047D000F5FCA2E720786178E27800EB012001B2D5
:1047E000A07800EB022002B2284603F0B3FB0120C0
:1047F0008DF804003AE00C208DF8080004948DF840
:104800001480224904A803F075F88DF8040050B311
:104810001E48F02103790268D5E90C0CE0470CB082
:10482000BDE8F081002004AA04E01154401CC0B28D
:1048300020280DD2D5F8C010095C0029F5D1202818
:1048400038BF002104D21154401CC0B22028FAD332
:10485000D5E90C0C2023F021E04701208DF804005D
:1048600004E001200DE79DF8040028B10023D5E9FC
:104870000C0C1A46F021D1E7D5E90C0C012302AA51
:10488000FF21CBE767666666898888880C00002070
:1048900010B500F001F810BD10B50446006BE16BD7
:1048A0008847802084F8C800A16B206BBDE81040C9
:1048B0000847000001480068FFF781BB04000020A2
:1048C00006480078002808BF704710B500F008F8C7
:1048D00002F018F9BDE8104003F010BB00070020FB
:1048E00010B50E4C2078012818BF10BD6088002834
:1048F0001CBF6088401E02D101F0B2FF0120608021
:10490000A08810B1A088401EA080E088002808BFC1
:1049100010BDE088401EE08010BD000000070020B0
:1049200001480068FFF773BB0400002001480068DD
:10493000FFF778BB040000202DE9F34F5A4E81B0F9
:10494000002406F12C01347058480860A1F10808D1
:104950005748C8F8000000F047FD04F07DF906F163
:10496000340001F0C5FC534800F06FF906F1100B5C
:104970005048CBF8000006F10C054F4828604F481E
:10498000FBF786FFDBF800104C4A286801F065FC55
:104990004B4803F075FDD8F800000090494B484A99
:1049A00049482968FBF752FD484800F04EF948484D
:1049B00000F04BF905F108094448C9F8000005F179
:1049C0000C0A4348CAF800004248F06101F052FB6B
:1049D00005F11C0140480860F169404FC0E943718E
:1049E0003F4800F007F905F114003D49016005F169
:1049F00024013C48086001F0DAFA0020FCF760FA74
:104A0000012087F82400286801F009FC3861286833
:104A100001F005FC0014B88207F128002F1FA0F157
:104A20002803386005F128012A68FFF7D7FA2868BB
:104A300001F005FC3B68014600221846FFF770FABA
:104A40000198396801602848DBF800100160D9F846
:104A500000104160DAF80010C0E90214D8F8001024
:104A60000161194941611549C0E9061414490162FF
:104A70002968416205F12801816214390968C1621F
:104A8000F169C0E90C1405F11C0184630968C0E9EF
:104A90000F1444648464C464029908600120307077
:104AA00003B0BDE8F08F00000007002010050020D3
:104AB0005802002028010020AC010020040300203F
:104AC000D002002028040020E00100205401002032
:104AD000800100206404002014000020480A002007
:104AE0003C040020F80400208C0A0020B0F80031BB
:104AF000002220F81310B0F80031A0F802315B1C3E
:104B00009BB2A0F80031802B24BF0023A0F8003115
:104B10005FF0000330F913C05B1C9BB26244802B32
:104B2000F8D3D31702EB5362D211A0F80421084640
:104B3000704700210A4620F81120491C89B28029BB
:104B4000F9D3A0F80021A0F802217047B0F90401C0
:104B50007047000008B5FEF7F3F84FF4FA61B0FBB8
:104B6000F1F0FEF7B5FB0749081FFFF7E5FE03F07C
:104B7000D3FF044B04481A1F00900121101F03F0BB
:104B800039FB08BD08000020C48C000810B504469D
:104B90000078002818BF002012D194F8260001F0F8
:104BA000B7F8A0F57F41FF3907D0218B238A4A1E31
:104BB00003FB0200B0FBF1F02082204600F02CF84D
:104BC000E08280B210BD0021018270470178002987
:104BD00018BF808A01D000B27047018A026A891A20
:104BE000B0F91E20808C5143CA1701EB124100EB33
:104BF0002140F0E710B50446007820B10020E082A3
:104C0000608A208210BD201D01F0E2F884F82600A1
:104C10002046FFF7D8FF10BD018A428B914284BF26
:104C200008207047828B8A428CBF0020C08A704760
:104C3000B0F922007047B0F906007047408B70470A
:104C4000B0F904007047008B70470188818041886B
:104C5000C180018C41840021816081627047816044
:104C6000704741847047C180704781807047000061
:104C700070B4B0F90420002402FB01F6B0F906205C
:104C8000B0F914C0B0F91630002A04BF00218160C9
:104C900014D085684A43A91805D5002DC4BF002A41
:104CA0006FF0004103E0002DBCBF002A0F49C2682D
:104CB0008A42A5BF0269914282608160827F8168D9
:104CC000057F41FA02F246FA05F52A446245C4BF5F
:104CD000ACEB0204624603DC9342C4BF9C1A1A4642
:104CE0002144816070BC10B2704700000100008058
:104CF00070B5D0F80C110446C868D1F8161010FB36
:104D000001F210FB3121C81701EB10400514D4F853
:104D1000100103F0FBFAD4F8081148434FF4167160
:104D200090FBF1F0684300EB40000849400081FB34
:104D300000108110A1EBE071C81701EB10400114C5
:104D40002046BDE87040FFF7D1BE0000676666668A
:104D5000C169084770B50446002511B1012908D082
:104D600017E000F007F9B4F85200A4F8440080B945
:104D70000BE0B4F84400002808BF012509D0401E0C
:104D80000004000CA4F8440003D1216920468847A0
:104D90000125284670BD4268104730B4038E0AB220
:104DA00053430A14B0F850104A435200524202EBE7
:104DB000030CA2EB03030CEBDC7C03EBD3735FEA85
:104DC0006C0C4FEA63034FEA910153D5002B18DABC
:104DD000042280F83A20ACEB0302D41702EB9432A1
:104DE00001EBA241DA1703EBD23201EB62434FEA47
:104DF000EC720CEBD232A1EB624CA0F83CC0C18744
:104E00006CE0002A1BDC4FF0030C80F83AC0A2EBE8
:104E1000030C4FEAEC740CEB943C01EBAC414FEA11
:104E2000E37C03EBDC334FEAE27C01EB634302EB10
:104E3000DC32A3EB624CA0F83CC0C38717E002232E
:104E400080F83A30ACEB0203DC1703EB943301EB50
:104E5000A3414FEAEC730CEBD333A1EB634CD317B4
:104E600002EBD3320CEB62438387A0F83EC0A0F87C
:104E7000401052E0002B17DB012280F83A20ACEB07
:104E80000302D41702EB943201EBA241DA1703EBD1
:104E9000D23201EB62434FEAEC720CEBD2328387E1
:104EA000A1EB624CC18736E0002A1ADC052380F8AA
:104EB0003A30ACEB0203DC1703EB943301EBA34174
:104EC0004FEAEC730CEBD333A1EB634CD31702EB3B
:104ED000D33281870CEB6243A0F83EC0A0F840308B
:104EE0001BE04FF0000C80F83AC0A2EB030C4FEA35
:104EF000EC740CEB943C01EBAC414FEAE37C03EB2C
:104F0000DC3301EB63434FEAE27C02EBDC32818766
:104F1000A3EB624CC387A0F840C089B29AB2418625
:104F200082861FFA8CF3C386B0F84EC0BCF1010F25
:104F300002D0816930BC0847B0F948C0BCF1000F0D
:104F4000B0F854C0CCBF6144A1EB0C014186B0F96C
:104F50004A1000291FFA8CF1CCBF1144511A8186E6
:104F6000B0F94C1000291FFA8CF1CCBF1944591A22
:104F7000C186DEE781680847C1680847416908477C
:104F8000816882B021F03F0121F020418160816879
:104F9000C1F3007141BB816821F03F0121F0004164
:104FA00041F0805181602D492D4A0968B1FBF2F131
:104FB00001910091C1B1B1F1004F4AD20029D8BF8F
:104FC000002105DD11F0010102D0019A521E01926B
:104FD000009A491C521C914206DA019B891C5B1EF7
:104FE0005B1E01939142F8DB816821F03F0121F0C3
:104FF000404141F0004181608168C90FFCD10168E6
:1050000011F0010F0BD1816821F03F0121F0004127
:1050100041F001018160016811F0010FF3D0816856
:1050200021F03F0121F0004141F0080181608168D9
:1050300021F03F0121F0004141F020018160C16871
:1050400021F4001121F0004141F40011C16002B0CF
:1050500070470199491E0191FCD1C5E76007002006
:10506000400D030090F8701091B9416F91F89A20AB
:10507000022A0DD10A6AB1F88C109162416F4A6A16
:10508000B1F88E109162426F916AB2F890208A62F4
:10509000012180F86E1046307047416F89684A6C74
:1050A00042F480624A64012180F86F1080F8701029
:1050B000463070472DE9F0470446406F0026D0E99E
:1050C0000185D0F80090E6652666666684F86C6017
:1050D000286A20F0550020F4A06028624B496160E6
:1050E0004B49A1618021A4F86A10042784F86D70EF
:1050F000204684F83A7000F03CFD4648696801405B
:105100007029FBD1D9F8080020F03F0020F00040C2
:1051100040F00800C9F80800D8F8080020F03F0067
:1051200020F0004040F00800C8F8080094F86C0037
:105130001028FBD3204600F0EBFC84F86C60364866
:10514000606084F86D6084F83A60204600F011FDDC
:1051500094F86C001028FBD3204600F0D9FCE06DD9
:10516000304A0009E065206E05F11801000920664B
:10517000606E00096066294860602948A061107867
:1051800000EB010CDCF8008002F10A00082390F823
:10519000009003FA09F928EA0908CCF8008092F88F
:1051A00002C08C44DCF8008090F8029003FA09F900
:1051B00028EA0908CCF80080127911440A680079BD
:1051C00003FA00F022EA00000860B4F8680068639F
:1051D000B4F86800A863B4F86800E86301212846C1
:1051E000FEF7DCFD10212846FEF7D8FD4FF4807154
:1051F0002846FEF7D3FD296A40F25550084328623D
:1052000084F83A7084F87060BDE8F087495300086C
:10521000E159000870000002A1530008295200085B
:10522000155A00081090000870B490F83AC0436F07
:105230002C2404EB8C049A681C592568442404EB44
:105240008C041B591C68536823F0700323F000730F
:1052500053603C4A530CBCF1060F64D2DFE80CF0FB
:105260001D404003031DD0F85CC0ACEB050C1CF5E1
:10527000004FD8BF0A8005DDBCF5004FACBF0B80E6
:10528000A1F800C0D0F860C0ACEB040C1CF5004FD6
:1052900045DDBCF5004F3DDA43E0D0F860C0ACEB33
:1052A000050C1CF5004FD8BF4A8005DDBCF5004F4A
:1052B000ACBF4B80A1F802C0D0F864C0A4EB0C0CCA
:1052C000B1F90240ACEB040CBCF5004FA8BF0B8059
:1052D00029DA1CF5004FD4BF0A80A1F800C022E0F3
:1052E000D0F85CC0ACEB050C1CF5004FD8BF0A80B1
:1052F00005DDBCF5004FACBF0B80A1F800C0D0F8B5
:1053000064C0A4EB0C0CB1F90040ACEB040CBCF590
:10531000004F01DB4B8006E01CF5004F01DC4A80AA
:1053200001E0A1F802C00A88A0F848204A88A0F845
:105330004A200A88498811444942A0F84C1070BCA0
:10534000704700000180FFFF30B490F86D40426F5D
:105350004FF02C0C0CEB840C936852F80CC0DCF86A
:1053600000C0442505EB8404125912685C6824F0DF
:10537000700424F000745C6090F86C30102B0AD23A
:10538000C36D6344C365036E1A44026690F86C20D3
:10539000521C80F86C2000200880488030BC704788
:1053A00010B4436F90F86DC0442404EB8C0C9A68E1
:1053B00053F80C301B68D2F804C02CF0700C2CF0A1
:1053C000007CC2F804C090F86C20102A07D2426E0C
:1053D0001A44426690F86C20521C80F86C20002021
:1053E0000880488010BC70472DE9F05F0546406F8B
:1053F000D0E90047D0E90261D0E906A8D0E9049BD2
:10540000606820F00400606004202060626822F080
:1054100020026260202222607B6823F004037B600C
:105420003860786820F0200078603A608748A6F1FC
:105430008042B2F5963202690CBF42F4006242F437
:105440000052026189B1086818B1026842F0010295
:105450000260486818B1026842F001020260886880
:1054600018B1016841F001010160B9F1000F25D0C8
:10547000686F90F89D10012914D0D9F80020744964
:105480000A40502A04BFB0F89610724808D0D9F8E4
:1054900000201140502904BFB0F896106E4801D189
:1054A00000F0F4FAD9F8000040F00100C9F800005B
:1054B000D9F8000040F00040C9F80000BBF1000F2F
:1054C0000BD0DBF8000040F00100CBF80000DBF867
:1054D000000040F00040CBF80000BAF1000F0BD004
:1054E000DAF8000040F00100CAF80000DAF8000025
:1054F00040F00040CAF80000B8F1000F25D0686FF6
:1055000090F8A010012914D0D8F8002050490A4082
:10551000502A04BFB0F898104E4808D0D8F80020A0
:105520001140502904BFB0F898104B4801D100F049
:10553000ADFAD8F8000040F00100C8F80000D8F833
:10554000000040F00040C8F80000A06810F0010F13
:1055500008D12046FFF714FD40202060606840F02D
:1055600040006060B86810F0010F04BF3846FFF7D4
:1055700007FD344630684FF47A7720F00100306040
:10558000706820F0700020F00070706001213046DB
:10559000FEF704FC10212046FEF700FC4FF480715A
:1055A0002046FEF7FBFB4FF480512046FEF7F6FB4A
:1055B000606940F001006061686F90F8A1100229F5
:1055C00003D095F8461099B126E090F8A210012971
:1055D00004BF90F89B00032811D14FF00100206315
:1055E000606940F0010060614FF00300206306E055
:1055F00090F89B00012802D0032805D00CE0B5F8F4
:105600006800401E606207E001202063606940F08E
:1056100001006061032020636FF080002061686FEB
:1056200090F89C00002818BF6FF4807108D02069A2
:10563000C0F3002000281EBF002F21617F1EF6D17D
:10564000E06840F08000E060BDE8F09F002004E0EA
:10565000F000C00001001102F2004235002190F874
:105660006F300A46012B04BF022180F86F2090F8AA
:105670006E30012B04BF41F0400180F86E200846D7
:105680007047000070B50546406F846895F8470084
:10569000012818BF70BD602201212046FEF7B8FB2B
:1056A000206A40F001002062686F90F89A0001289B
:1056B00004BF206A40F0040005D0022804BF206A1D
:1056C00020F0040000D12062B5F868004008606353
:1056D000602210212046FEF79BFB206A40F010005C
:1056E0002062686F90F89A00012804BF206A40F099
:1056F000400005D0022804BF206A20F0400000D1FD
:105700002062B5F868004008A06360224FF4807101
:105710002046FEF77DFB206A40F480702062686FAF
:1057200090F89A00012804BF206A40F4806005D0F8
:10573000022804BF206A20F4806000D12062B5F8FE
:1057400068004008E06306486860064868610648EB
:10575000E8600648A860002085F8470070BD00009A
:1057600029520008B95C0008735B0008115B00084F
:1057700070B50546406F846895F84700002840D111
:10578000602201212046FEF743FB206A40F0010021
:105790002062206A20F00400206200206063686FAD
:1057A00090F89A00012802D002280DD019E01022AA
:1057B00011462046FEF72CFB206A20F010002062E4
:1057C000206A40F040000BE0202210212046FEF726
:1057D0001FFB206A40F010002062206A20F0400089
:1057E000206270224FF480712046FEF711FB206A80
:1057F00020F480702062206A20F480602062286E8D
:10580000E86506486860064868610648E86006483A
:10581000A860012085F8470070BD00009558000879
:1058200099590008DD580008115B000870B504465E
:10583000406F70228568B4F868004843000C6086A9
:105840004FF480512846FEF7E3FAB4F86800B4F844
:105850005610401A2864B4F85800E863608E6863F4
:10586000686820F0700020F0007040F07000686000
:10587000032084F83A0068680549084018BF0120F1
:10588000218F012918BF70BD01200021218770BD23
:1058900070000002426F9268536823F0700323F097
:1058A0000073536090F83A304FF0440C426F0CEBA9
:1058B0008303D2581268006E801A074A9042D8BFFC
:1058C000104605DD47F6FF729042A8BF47F6FF700D
:1058D00008804880704700000180FFFF10B4426FCD
:1058E0006FF00104D2E901C113680C610A6912F07A
:1058F000010FFBD00C6101224A63B0F86820521FEF
:105900000A640A6912F0010FFBD0CA6842F0010272
:10591000CA604A6C42F480624A644A6C42F40042B3
:105920004A64426F92F89A40022C1ED1096A40F2F2
:1059300055542142116AB2F88C200BD08A61426F13
:10594000516AB2F88E208A61416F8A6AB1F890106C
:1059500091620AE08A62426F516AB2F88E208A62CE
:10596000426F916AB2F890208A62032180F83A105F
:10597000986820F03F0020F0004040F00800986058
:10598000DCF8080020F03F0020F0004040F0080064
:10599000CCF8080010BC7047416F002289684A6348
:1059A000921E0A610A6912F0010FFBD04A6C42F4A0
:1059B00000424A64416F91F89A20022A18BF70474A
:1059C0000A6AB1F88C109161426F516AB2F88E2068
:1059D0008A62416F886AB1F8901081627047000056
:1059E00090F86D1080F83A10B0F86810438E491E98
:1059F0008AB2416F89684B63838E8B63C08EC863A4
:105A00000A6448680249084018BF01207047000036
:105A10007000000230B4446FB0F86820818FB4F891
:105A200092C0531A9BB2634506D9042180F83A10FC
:105A300091B2491E89B217E0C58F4D1BADB2B5EBCF
:105A4000430F84BFB4F89420891A0CD8614489B2FA
:105A5000914209D34FF48072A0F86A20B0F8682010
:105A6000C1EB4201491E89B2A268438E5363838E03
:105A70009363C08ED063116450680349084018BF17
:105A8000012030BC70470000700000021D4AC0F3C6
:105A9000035302EB8303D3F808C06FF30F1C4CEAE7
:105AA00001019960516800F003031943516000F04F
:105AB0001001012088401168144B30EA010C124992
:105AC0000FD0D2F800C04CEA000010600868B0FBAC
:105AD000F3F0C00008BF7047B0F1004F38BF704707
